{
  "contractName": "Neighbour",
  "abi": [
    {
      "constant": true,
      "inputs": [
        {
          "internalType": "uint256",
          "name": "",
          "type": "uint256"
        }
      ],
      "name": "_idcheck",
      "outputs": [
        {
          "internalType": "uint256",
          "name": "",
          "type": "uint256"
        }
      ],
      "payable": false,
      "stateMutability": "view",
      "type": "function"
    },
    {
      "constant": true,
      "inputs": [
        {
          "internalType": "uint256",
          "name": "",
          "type": "uint256"
        }
      ],
      "name": "_idtrans",
      "outputs": [
        {
          "internalType": "uint256",
          "name": "",
          "type": "uint256"
        }
      ],
      "payable": false,
      "stateMutability": "view",
      "type": "function"
    },
    {
      "constant": true,
      "inputs": [
        {
          "internalType": "uint256",
          "name": "",
          "type": "uint256"
        }
      ],
      "name": "donors",
      "outputs": [
        {
          "internalType": "uint256",
          "name": "donor_id",
          "type": "uint256"
        },
        {
          "internalType": "string",
          "name": "name",
          "type": "string"
        },
        {
          "internalType": "string",
          "name": "phone_number",
          "type": "string"
        }
      ],
      "payable": false,
      "stateMutability": "view",
      "type": "function"
    },
    {
      "constant": true,
      "inputs": [
        {
          "internalType": "uint256",
          "name": "",
          "type": "uint256"
        }
      ],
      "name": "medicine",
      "outputs": [
        {
          "internalType": "uint256",
          "name": "donor_id",
          "type": "uint256"
        },
        {
          "internalType": "uint256",
          "name": "medicine_id",
          "type": "uint256"
        },
        {
          "internalType": "string",
          "name": "ipfs_hash",
          "type": "string"
        },
        {
          "internalType": "string",
          "name": "medicineName",
          "type": "string"
        },
        {
          "internalType": "uint256",
          "name": "medicineQuantity",
          "type": "uint256"
        },
        {
          "internalType": "string",
          "name": "datee",
          "type": "string"
        }
      ],
      "payable": false,
      "stateMutability": "view",
      "type": "function"
    },
    {
      "constant": true,
      "inputs": [
        {
          "internalType": "uint256",
          "name": "",
          "type": "uint256"
        }
      ],
      "name": "mul_tr",
      "outputs": [
        {
          "internalType": "uint256",
          "name": "id",
          "type": "uint256"
        }
      ],
      "payable": false,
      "stateMutability": "view",
      "type": "function"
    },
    {
      "constant": false,
      "inputs": [],
      "name": "getArr",
      "outputs": [
        {
          "internalType": "uint256",
          "name": "",
          "type": "uint256"
        }
      ],
      "payable": false,
      "stateMutability": "nonpayable",
      "type": "function"
    },
    {
      "constant": false,
      "inputs": [],
      "name": "getTran",
      "outputs": [
        {
          "internalType": "uint256",
          "name": "",
          "type": "uint256"
        }
      ],
      "payable": false,
      "stateMutability": "nonpayable",
      "type": "function"
    },
    {
      "constant": false,
      "inputs": [
        {
          "internalType": "uint256",
          "name": "donor_id",
          "type": "uint256"
        },
        {
          "internalType": "string",
          "name": "name",
          "type": "string"
        },
        {
          "internalType": "string",
          "name": "phone_number",
          "type": "string"
        }
      ],
      "name": "setDonorDetails",
      "outputs": [],
      "payable": false,
      "stateMutability": "nonpayable",
      "type": "function"
    },
    {
      "constant": false,
      "inputs": [
        {
          "internalType": "uint256",
          "name": "donor_id",
          "type": "uint256"
        },
        {
          "internalType": "uint256",
          "name": "medicine_id",
          "type": "uint256"
        },
        {
          "internalType": "string",
          "name": "ipfs_hash",
          "type": "string"
        },
        {
          "internalType": "string",
          "name": "medicineName",
          "type": "string"
        },
        {
          "internalType": "uint256",
          "name": "medicineQuantity",
          "type": "uint256"
        },
        {
          "internalType": "string",
          "name": "datee",
          "type": "string"
        }
      ],
      "name": "setMedicineDetails",
      "outputs": [],
      "payable": false,
      "stateMutability": "nonpayable",
      "type": "function"
    },
    {
      "constant": true,
      "inputs": [
        {
          "internalType": "uint256",
          "name": "donor_id",
          "type": "uint256"
        },
        {
          "internalType": "uint256",
          "name": "medicine_id",
          "type": "uint256"
        }
      ],
      "name": "getMedName",
      "outputs": [
        {
          "internalType": "string",
          "name": "",
          "type": "string"
        }
      ],
      "payable": false,
      "stateMutability": "view",
      "type": "function"
    },
    {
      "constant": true,
      "inputs": [
        {
          "internalType": "uint256",
          "name": "donor_id",
          "type": "uint256"
        },
        {
          "internalType": "uint256",
          "name": "medicine_id",
          "type": "uint256"
        }
      ],
      "name": "getMedQuan",
      "outputs": [
        {
          "internalType": "uint256",
          "name": "",
          "type": "uint256"
        }
      ],
      "payable": false,
      "stateMutability": "view",
      "type": "function"
    }
  ],
  "bytecode": "0x608060405234801561001057600080fd5b506111e3806100206000396000f3fe608060405234801561001057600080fd5b50600436106100a95760003560e01c8063a886766311610071578063a8867663146103f4578063babaf713146105fb578063c1132e2d146106ac578063ca24c58814610840578063f26d64d414610882578063fb8cbced146108a0576100a9565b806305215f79146100ae57806323922565146100f0578063240822381461013c5780634abfa1631461017e5780638b6fac4814610298575b600080fd5b6100da600480360360208110156100c457600080fd5b81019080803590602001909291905050506108be565b6040518082815260200191505060405180910390f35b6101266004803603604081101561010657600080fd5b8101908080359060200190929190803590602001909291905050506108df565b6040518082815260200191505060405180910390f35b6101686004803603602081101561015257600080fd5b8101908080359060200190929190505050610914565b6040518082815260200191505060405180910390f35b6101aa6004803603602081101561019457600080fd5b8101908080359060200190929190505050610932565b604051808481526020018060200180602001838103835285818151815260200191508051906020019080838360005b838110156101f45780820151818401526020810190506101d9565b50505050905090810190601f1680156102215780820380516001836020036101000a031916815260200191505b50838103825284818151815260200191508051906020019080838360005b8381101561025a57808201518184015260208101905061023f565b50505050905090810190601f1680156102875780820380516001836020036101000a031916815260200191505b509550505050505060405180910390f35b6103f2600480360360608110156102ae57600080fd5b8101908080359060200190929190803590602001906401000000008111156102d557600080fd5b8201836020820111156102e757600080fd5b8035906020019184600183028401116401000000008311171561030957600080fd5b91908080601f016020809104026020016040519081016040528093929190818152602001838380828437600081840152601f19601f8201169050808301925050505050505091929192908035906020019064010000000081111561036c57600080fd5b82018360208201111561037e57600080fd5b803590602001918460018302840111640100000000831117156103a057600080fd5b91908080601f016020809104026020016040519081016040528093929190818152602001838380828437600081840152601f19601f820116905080830192505050505050509192919290505050610a8c565b005b6105f9600480360360c081101561040a57600080fd5b8101908080359060200190929190803590602001909291908035906020019064010000000081111561043b57600080fd5b82018360208201111561044d57600080fd5b8035906020019184600183028401116401000000008311171561046f57600080fd5b91908080601f016020809104026020016040519081016040528093929190818152602001838380828437600081840152601f19601f820116905080830192505050505050509192919290803590602001906401000000008111156104d257600080fd5b8201836020820111156104e457600080fd5b8035906020019184600183028401116401000000008311171561050657600080fd5b91908080601f016020809104026020016040519081016040528093929190818152602001838380828437600081840152601f19601f820116905080830192505050505050509192919290803590602001909291908035906020019064010000000081111561057357600080fd5b82018360208201111561058557600080fd5b803590602001918460018302840111640100000000831117156105a757600080fd5b91908080601f016020809104026020016040519081016040528093929190818152602001838380828437600081840152601f19601f820116905080830192505050505050509192919290505050610b05565b005b6106316004803603604081101561061157600080fd5b810190808035906020019092919080359060200190929190505050610c57565b6040518080602001828103825283818151815260200191508051906020019080838360005b83811015610671578082015181840152602081019050610656565b50505050905090810190601f16801561069e5780820380516001836020036101000a031916815260200191505b509250505060405180910390f35b6106d8600480360360208110156106c257600080fd5b8101908080359060200190929190505050610d24565b60405180878152602001868152602001806020018060200185815260200180602001848103845288818151815260200191508051906020019080838360005b83811015610732578082015181840152602081019050610717565b50505050905090810190601f16801561075f5780820380516001836020036101000a031916815260200191505b50848103835287818151815260200191508051906020019080838360005b8381101561079857808201518184015260208101905061077d565b50505050905090810190601f1680156107c55780820380516001836020036101000a031916815260200191505b50848103825285818151815260200191508051906020019080838360005b838110156107fe5780820151818401526020810190506107e3565b50505050905090810190601f16801561082b5780820380516001836020036101000a031916815260200191505b50995050505050505050505060405180910390f35b61086c6004803603602081101561085657600080fd5b8101908080359060200190929190505050610f28565b6040518082815260200191505060405180910390f35b61088a610f49565b6040518082815260200191505060405180910390f35b6108a8610fe9565b6040518082815260200191505060405180910390f35b600381815481106108cb57fe5b906000526020600020016000915090505481565b600060026000848152602001908152602001600020600101600083815260200190815260200160002060040154905092915050565b60026020528060005260406000206000915090508060000154905081565b6000602052806000526040600020600091509050806000015490806001018054600181600116156101000203166002900480601f0160208091040260200160405190810160405280929190818152602001828054600181600116156101000203166002900480156109e45780601f106109b9576101008083540402835291602001916109e4565b820191906000526020600020905b8154815290600101906020018083116109c757829003601f168201915b505050505090806002018054600181600116156101000203166002900480601f016020809104026020016040519081016040528092919081815260200182805460018160011615610100020316600290048015610a825780601f10610a5757610100808354040283529160200191610a82565b820191906000526020600020905b815481529060010190602001808311610a6557829003601f168201915b5050505050905083565b604051806060016040528084815260200183815260200182815250600080858152602001908152602001600020600082015181600001556020820151816001019080519060200190610adf929190611089565b506040820151816002019080519060200190610afc929190611089565b50905050505050565b85600260008881526020019081526020016000206001016000878152602001908152602001600020600001819055508460026000888152602001908152602001600020600101600087815260200190815260200160002060010181905550836002600088815260200190815260200160002060010160008781526020019081526020016000206002019080519060200190610ba1929190611109565b50826002600088815260200190815260200160002060010160008781526020019081526020016000206003019080519060200190610be0929190611109565b508160026000888152602001908152602001600020600101600087815260200190815260200160002060040181905550806002600088815260200190815260200160002060010160008781526020019081526020016000206005019080519060200190610c4e929190611109565b50505050505050565b60606002600084815260200190815260200160002060010160008381526020019081526020016000206003018054600181600116156101000203166002900480601f016020809104026020016040519081016040528092919081815260200182805460018160011615610100020316600290048015610d175780601f10610cec57610100808354040283529160200191610d17565b820191906000526020600020905b815481529060010190602001808311610cfa57829003601f168201915b5050505050905092915050565b6001602052806000526040600020600091509050806000015490806001015490806002018054600181600116156101000203166002900480601f016020809104026020016040519081016040528092919081815260200182805460018160011615610100020316600290048015610ddc5780601f10610db157610100808354040283529160200191610ddc565b820191906000526020600020905b815481529060010190602001808311610dbf57829003601f168201915b505050505090806003018054600181600116156101000203166002900480601f016020809104026020016040519081016040528092919081815260200182805460018160011615610100020316600290048015610e7a5780601f10610e4f57610100808354040283529160200191610e7a565b820191906000526020600020905b815481529060010190602001808311610e5d57829003601f168201915b505050505090806004015490806005018054600181600116156101000203166002900480601f016020809104026020016040519081016040528092919081815260200182805460018160011615610100020316600290048015610f1e5780601f10610ef357610100808354040283529160200191610f1e565b820191906000526020600020905b815481529060010190602001808311610f0157829003601f168201915b5050505050905086565b60048181548110610f3557fe5b906000526020600020016000915090505481565b6000806004805490501415610f8e5760046001908060018154018082558091505090600182039060005260206000200160009091929091909150555060019050610fe6565b60006001600460016004805490500381548110610fa757fe5b90600052602060002001540190506004819080600181540180825580915050906001820390600052602060002001600090919290919091505550809150505b90565b600080600380549050141561102e5760036001908060018154018082558091505090600182039060005260206000200160009091929091909150555060019050611086565b6000600160036001600380549050038154811061104757fe5b90600052602060002001540190506003819080600181540180825580915050906001820390600052602060002001600090919290919091505550809150505b90565b828054600181600116156101000203166002900490600052602060002090601f016020900481019282601f106110ca57805160ff19168380011785556110f8565b828001600101855582156110f8579182015b828111156110f75782518255916020019190600101906110dc565b5b5090506111059190611189565b5090565b828054600181600116156101000203166002900490600052602060002090601f016020900481019282601f1061114a57805160ff1916838001178555611178565b82800160010185558215611178579182015b8281111561117757825182559160200191906001019061115c565b5b5090506111859190611189565b5090565b6111ab91905b808211156111a757600081600090555060010161118f565b5090565b9056fea265627a7a723158201abaa89251063286132da6132b44150e508b5310cc0ddeb59b8b407b5772392a64736f6c63430005100032",
  "source": "// SPDX-License-Identifier: MIT\r\npragma solidity >=0.4.22 <0.9.0;\r\n\r\ncontract Neighbour{\r\n    struct MedDonorDetails{\r\n        uint donor_id;\r\n        string name;\r\n        string phone_number;\r\n    }\r\n    \r\n    struct MedicineDetails{\r\n        uint donor_id;\r\n        uint medicine_id;\r\n        string ipfs_hash;\r\n        string medicineName;\r\n        uint medicineQuantity;\r\n        string datee;\r\n    }\r\n    \r\n    struct Multitransport{\r\n        uint id;\r\n        mapping(uint=>MedicineDetails) mulMed;\r\n    }\r\n    \r\n    mapping(uint=>MedDonorDetails) public donors;\r\n    mapping(uint=>MedicineDetails) public medicine;\r\n    mapping(uint=>Multitransport) public mul_tr;\r\n    \r\n    uint[] public _idcheck;\r\n    uint[] public _idtrans;\r\n    \r\n    function getArr() public  returns(uint){\r\n        \r\n        if(_idcheck.length==0){\r\n            _idcheck.push(1);\r\n            return 1;\r\n        }\r\n        else{\r\n            uint a = _idcheck[_idcheck.length-1]+1;\r\n            _idcheck.push(a);\r\n            return a;\r\n        }\r\n    } \r\n    \r\n    function getTran() public returns(uint){\r\n        if(_idtrans.length==0){\r\n            _idtrans.push(1);\r\n            return 1;\r\n        }else{\r\n            uint b = _idtrans[_idtrans.length-1]+1;\r\n            _idtrans.push(b);\r\n            return b;\r\n        }\r\n    }\r\n    \r\n    function setDonorDetails(uint donor_id,string memory name,string memory phone_number) public {\r\n        donors[donor_id] = MedDonorDetails(donor_id,name,phone_number);\r\n    } \r\n    \r\n    function setMedicineDetails(uint donor_id,uint medicine_id,string memory ipfs_hash,string memory medicineName,uint medicineQuantity,string memory datee) public {\r\n        mul_tr[donor_id].mulMed[medicine_id].donor_id = donor_id;\r\n        mul_tr[donor_id].mulMed[medicine_id].medicine_id = medicine_id;\r\n        mul_tr[donor_id].mulMed[medicine_id].ipfs_hash = ipfs_hash;\r\n        mul_tr[donor_id].mulMed[medicine_id].medicineName = medicineName;\r\n        mul_tr[donor_id].mulMed[medicine_id].medicineQuantity = medicineQuantity;\r\n        mul_tr[donor_id].mulMed[medicine_id].datee = datee;\r\n    }\r\n    \r\n    function getMedName(uint donor_id,uint medicine_id) public view returns(string memory){\r\n        return(mul_tr[donor_id].mulMed[medicine_id].medicineName);\r\n    }\r\n\r\n    function getMedQuan(uint donor_id,uint medicine_id) public view returns(uint){\r\n        return(mul_tr[donor_id].mulMed[medicine_id].medicineQuantity);\r\n    }\r\n    \r\n}",
  "sourcePath": "C:/Users/A_R_COMPUTERS/Desktop/projects/Helper/blockchain/contracts/Neighbour.sol",
  "compiler": {
    "name": "solc",
    "version": "0.5.16+commit.9c3226ce.Emscripten.clang"
  },
  "schemaVersion": "3.3.4",
  "updatedAt": "2021-05-16T10:30:43.452Z",
  "devdoc": {
    "methods": {}
  },
  "userdoc": {
    "methods": {}
  }
}